
bin/Release/Atmega32.elf:     file format elf32-avr

Sections:
Idx Name          Size      VMA       LMA       File off  Algn
  0 .text         00000360  00000000  00000000  00000094  2**1
                  CONTENTS, ALLOC, LOAD, READONLY, CODE
  1 .data         00000000  00800060  00000360  000003f4  2**0
                  CONTENTS, ALLOC, LOAD, DATA
  2 .bss          00000084  00800060  00800060  000003f4  2**0
                  ALLOC
  3 .stab         000006cc  00000000  00000000  000003f4  2**2
                  CONTENTS, READONLY, DEBUGGING
  4 .stabstr      00000054  00000000  00000000  00000ac0  2**0
                  CONTENTS, READONLY, DEBUGGING
  5 .comment      00000011  00000000  00000000  00000b14  2**0
                  CONTENTS, READONLY

Disassembly of section .text:

00000000 <__vectors>:
   0:	0c 94 2a 00 	jmp	0x54	; 0x54 <__ctors_end>
   4:	0c 94 3c 00 	jmp	0x78	; 0x78 <__bad_interrupt>
   8:	0c 94 3c 00 	jmp	0x78	; 0x78 <__bad_interrupt>
   c:	0c 94 3c 00 	jmp	0x78	; 0x78 <__bad_interrupt>
  10:	0c 94 3c 00 	jmp	0x78	; 0x78 <__bad_interrupt>
  14:	0c 94 3c 00 	jmp	0x78	; 0x78 <__bad_interrupt>
  18:	0c 94 3c 00 	jmp	0x78	; 0x78 <__bad_interrupt>
  1c:	0c 94 3c 00 	jmp	0x78	; 0x78 <__bad_interrupt>
  20:	0c 94 3c 00 	jmp	0x78	; 0x78 <__bad_interrupt>
  24:	0c 94 3c 00 	jmp	0x78	; 0x78 <__bad_interrupt>
  28:	0c 94 3c 00 	jmp	0x78	; 0x78 <__bad_interrupt>
  2c:	0c 94 3c 00 	jmp	0x78	; 0x78 <__bad_interrupt>
  30:	0c 94 3c 00 	jmp	0x78	; 0x78 <__bad_interrupt>
  34:	0c 94 8e 00 	jmp	0x11c	; 0x11c <__vector_13>
  38:	0c 94 65 00 	jmp	0xca	; 0xca <__vector_14>
  3c:	0c 94 3c 00 	jmp	0x78	; 0x78 <__bad_interrupt>
  40:	0c 94 3c 00 	jmp	0x78	; 0x78 <__bad_interrupt>
  44:	0c 94 3c 00 	jmp	0x78	; 0x78 <__bad_interrupt>
  48:	0c 94 3c 00 	jmp	0x78	; 0x78 <__bad_interrupt>
  4c:	0c 94 3c 00 	jmp	0x78	; 0x78 <__bad_interrupt>
  50:	0c 94 3c 00 	jmp	0x78	; 0x78 <__bad_interrupt>

00000054 <__ctors_end>:
  54:	11 24       	eor	r1, r1
  56:	1f be       	out	0x3f, r1	; 63
  58:	cf e5       	ldi	r28, 0x5F	; 95
  5a:	d8 e0       	ldi	r29, 0x08	; 8
  5c:	de bf       	out	0x3e, r29	; 62
  5e:	cd bf       	out	0x3d, r28	; 61

00000060 <__do_clear_bss>:
  60:	10 e0       	ldi	r17, 0x00	; 0
  62:	a0 e6       	ldi	r26, 0x60	; 96
  64:	b0 e0       	ldi	r27, 0x00	; 0
  66:	01 c0       	rjmp	.+2      	; 0x6a <.do_clear_bss_start>

00000068 <.do_clear_bss_loop>:
  68:	1d 92       	st	X+, r1

0000006a <.do_clear_bss_start>:
  6a:	a4 3e       	cpi	r26, 0xE4	; 228
  6c:	b1 07       	cpc	r27, r17
  6e:	e1 f7       	brne	.-8      	; 0x68 <.do_clear_bss_loop>
  70:	0e 94 7d 01 	call	0x2fa	; 0x2fa <main>
  74:	0c 94 ae 01 	jmp	0x35c	; 0x35c <_exit>

00000078 <__bad_interrupt>:
  78:	0c 94 00 00 	jmp	0	; 0x0 <__vectors>

0000007c <queue_byte>:
  7c:	e0 91 61 00 	lds	r30, 0x0061
  80:	91 e0       	ldi	r25, 0x01	; 1
  82:	9e 0f       	add	r25, r30
  84:	90 93 61 00 	sts	0x0061, r25
  88:	f0 e0       	ldi	r31, 0x00	; 0
  8a:	ec 59       	subi	r30, 0x9C	; 156
  8c:	ff 4f       	sbci	r31, 0xFF	; 255
  8e:	80 83       	st	Z, r24
  90:	80 91 61 00 	lds	r24, 0x0061
  94:	8f 73       	andi	r24, 0x3F	; 63
  96:	80 93 61 00 	sts	0x0061, r24
  9a:	55 9a       	sbi	0x0a, 5	; 10
  9c:	08 95       	ret

0000009e <fetch_byte>:
  9e:	90 91 62 00 	lds	r25, 0x0062
  a2:	80 91 63 00 	lds	r24, 0x0063
  a6:	98 17       	cp	r25, r24
  a8:	d1 f3       	breq	.-12     	; 0x9e <fetch_byte>
  aa:	e0 91 62 00 	lds	r30, 0x0062
  ae:	81 e0       	ldi	r24, 0x01	; 1
  b0:	8e 0f       	add	r24, r30
  b2:	80 93 62 00 	sts	0x0062, r24
  b6:	f0 e0       	ldi	r31, 0x00	; 0
  b8:	ec 55       	subi	r30, 0x5C	; 92
  ba:	ff 4f       	sbci	r31, 0xFF	; 255
  bc:	80 81       	ld	r24, Z
  be:	90 91 62 00 	lds	r25, 0x0062
  c2:	9f 73       	andi	r25, 0x3F	; 63
  c4:	90 93 62 00 	sts	0x0062, r25
  c8:	08 95       	ret

000000ca <__vector_14>:
  ca:	1f 92       	push	r1
  cc:	0f 92       	push	r0
  ce:	0f b6       	in	r0, 0x3f	; 63
  d0:	0f 92       	push	r0
  d2:	11 24       	eor	r1, r1
  d4:	8f 93       	push	r24
  d6:	9f 93       	push	r25
  d8:	ef 93       	push	r30
  da:	ff 93       	push	r31
  dc:	e0 91 60 00 	lds	r30, 0x0060
  e0:	81 e0       	ldi	r24, 0x01	; 1
  e2:	8e 0f       	add	r24, r30
  e4:	80 93 60 00 	sts	0x0060, r24
  e8:	f0 e0       	ldi	r31, 0x00	; 0
  ea:	ec 59       	subi	r30, 0x9C	; 156
  ec:	ff 4f       	sbci	r31, 0xFF	; 255
  ee:	80 81       	ld	r24, Z
  f0:	8c b9       	out	0x0c, r24	; 12
  f2:	80 91 60 00 	lds	r24, 0x0060
  f6:	8f 73       	andi	r24, 0x3F	; 63
  f8:	80 93 60 00 	sts	0x0060, r24
  fc:	90 91 60 00 	lds	r25, 0x0060
 100:	80 91 61 00 	lds	r24, 0x0061
 104:	98 13       	cpse	r25, r24
 106:	01 c0       	rjmp	.+2      	; 0x10a <__vector_14+0x40>
 108:	55 98       	cbi	0x0a, 5	; 10
 10a:	ff 91       	pop	r31
 10c:	ef 91       	pop	r30
 10e:	9f 91       	pop	r25
 110:	8f 91       	pop	r24
 112:	0f 90       	pop	r0
 114:	0f be       	out	0x3f, r0	; 63
 116:	0f 90       	pop	r0
 118:	1f 90       	pop	r1
 11a:	18 95       	reti

0000011c <__vector_13>:
 11c:	1f 92       	push	r1
 11e:	0f 92       	push	r0
 120:	0f b6       	in	r0, 0x3f	; 63
 122:	0f 92       	push	r0
 124:	11 24       	eor	r1, r1
 126:	8f 93       	push	r24
 128:	ef 93       	push	r30
 12a:	ff 93       	push	r31
 12c:	e0 91 63 00 	lds	r30, 0x0063
 130:	81 e0       	ldi	r24, 0x01	; 1
 132:	8e 0f       	add	r24, r30
 134:	80 93 63 00 	sts	0x0063, r24
 138:	f0 e0       	ldi	r31, 0x00	; 0
 13a:	8c b1       	in	r24, 0x0c	; 12
 13c:	ec 55       	subi	r30, 0x5C	; 92
 13e:	ff 4f       	sbci	r31, 0xFF	; 255
 140:	80 83       	st	Z, r24
 142:	80 91 63 00 	lds	r24, 0x0063
 146:	8f 73       	andi	r24, 0x3F	; 63
 148:	80 93 63 00 	sts	0x0063, r24
 14c:	ff 91       	pop	r31
 14e:	ef 91       	pop	r30
 150:	8f 91       	pop	r24
 152:	0f 90       	pop	r0
 154:	0f be       	out	0x3f, r0	; 63
 156:	0f 90       	pop	r0
 158:	1f 90       	pop	r1
 15a:	18 95       	reti

0000015c <bytesAvailable>:
 15c:	90 91 63 00 	lds	r25, 0x0063
 160:	80 91 62 00 	lds	r24, 0x0062
 164:	98 17       	cp	r25, r24
 166:	28 f0       	brcs	.+10     	; 0x172 <bytesAvailable+0x16>
 168:	80 91 63 00 	lds	r24, 0x0063
 16c:	90 91 62 00 	lds	r25, 0x0062
 170:	05 c0       	rjmp	.+10     	; 0x17c <bytesAvailable+0x20>
 172:	80 91 63 00 	lds	r24, 0x0063
 176:	90 91 62 00 	lds	r25, 0x0062
 17a:	80 5c       	subi	r24, 0xC0	; 192
 17c:	89 1b       	sub	r24, r25
 17e:	08 95       	ret

00000180 <readBuffer>:
 180:	fc 01       	movw	r30, r24
 182:	70 e0       	ldi	r23, 0x00	; 0
 184:	9f 01       	movw	r18, r30
 186:	28 1b       	sub	r18, r24
 188:	39 0b       	sbc	r19, r25
 18a:	26 17       	cp	r18, r22
 18c:	37 07       	cpc	r19, r23
 18e:	8c f4       	brge	.+34     	; 0x1b2 <readBuffer+0x32>
 190:	a0 91 62 00 	lds	r26, 0x0062
 194:	21 e0       	ldi	r18, 0x01	; 1
 196:	2a 0f       	add	r18, r26
 198:	20 93 62 00 	sts	0x0062, r18
 19c:	b0 e0       	ldi	r27, 0x00	; 0
 19e:	ac 55       	subi	r26, 0x5C	; 92
 1a0:	bf 4f       	sbci	r27, 0xFF	; 255
 1a2:	2c 91       	ld	r18, X
 1a4:	21 93       	st	Z+, r18
 1a6:	20 91 62 00 	lds	r18, 0x0062
 1aa:	2f 73       	andi	r18, 0x3F	; 63
 1ac:	20 93 62 00 	sts	0x0062, r18
 1b0:	e9 cf       	rjmp	.-46     	; 0x184 <readBuffer+0x4>
 1b2:	08 95       	ret

000001b4 <readCommand>:
 1b4:	cf 93       	push	r28
 1b6:	df 93       	push	r29
 1b8:	ec 01       	movw	r28, r24
 1ba:	0e 94 ae 00 	call	0x15c	; 0x15c <bytesAvailable>
 1be:	88 23       	and	r24, r24
 1c0:	e1 f3       	breq	.-8      	; 0x1ba <readCommand+0x6>
 1c2:	61 e0       	ldi	r22, 0x01	; 1
 1c4:	ce 01       	movw	r24, r28
 1c6:	0e 94 c0 00 	call	0x180	; 0x180 <readBuffer>
 1ca:	88 81       	ld	r24, Y
 1cc:	81 34       	cpi	r24, 0x41	; 65
 1ce:	b9 f4       	brne	.+46     	; 0x1fe <readCommand+0x4a>
 1d0:	0e 94 ae 00 	call	0x15c	; 0x15c <bytesAvailable>
 1d4:	88 23       	and	r24, r24
 1d6:	e1 f3       	breq	.-8      	; 0x1d0 <readCommand+0x1c>
 1d8:	61 e0       	ldi	r22, 0x01	; 1
 1da:	ce 01       	movw	r24, r28
 1dc:	0e 94 c0 00 	call	0x180	; 0x180 <readBuffer>
 1e0:	88 81       	ld	r24, Y
 1e2:	81 34       	cpi	r24, 0x41	; 65
 1e4:	51 f4       	brne	.+20     	; 0x1fa <readCommand+0x46>
 1e6:	0e 94 ae 00 	call	0x15c	; 0x15c <bytesAvailable>
 1ea:	82 30       	cpi	r24, 0x02	; 2
 1ec:	e0 f3       	brcs	.-8      	; 0x1e6 <readCommand+0x32>
 1ee:	62 e0       	ldi	r22, 0x02	; 2
 1f0:	ce 01       	movw	r24, r28
 1f2:	0e 94 c0 00 	call	0x180	; 0x180 <readBuffer>
 1f6:	81 e0       	ldi	r24, 0x01	; 1
 1f8:	06 c0       	rjmp	.+12     	; 0x206 <readCommand+0x52>
 1fa:	82 e3       	ldi	r24, 0x32	; 50
 1fc:	01 c0       	rjmp	.+2      	; 0x200 <readCommand+0x4c>
 1fe:	81 e3       	ldi	r24, 0x31	; 49
 200:	0e 94 3e 00 	call	0x7c	; 0x7c <queue_byte>
 204:	80 e0       	ldi	r24, 0x00	; 0
 206:	df 91       	pop	r29
 208:	cf 91       	pop	r28
 20a:	08 95       	ret

0000020c <USARTInit>:
 20c:	90 bd       	out	0x20, r25	; 32
 20e:	89 b9       	out	0x09, r24	; 9
 210:	86 e8       	ldi	r24, 0x86	; 134
 212:	80 bd       	out	0x20, r24	; 32
 214:	88 eb       	ldi	r24, 0xB8	; 184
 216:	8a b9       	out	0x0a, r24	; 10
 218:	78 94       	sei
 21a:	08 95       	ret

0000021c <delay>:
 21c:	20 e0       	ldi	r18, 0x00	; 0
 21e:	30 e0       	ldi	r19, 0x00	; 0
 220:	28 17       	cp	r18, r24
 222:	39 07       	cpc	r19, r25
 224:	49 f0       	breq	.+18     	; 0x238 <delay+0x1c>
 226:	ef e9       	ldi	r30, 0x9F	; 159
 228:	ff e0       	ldi	r31, 0x0F	; 15
 22a:	31 97       	sbiw	r30, 0x01	; 1
 22c:	f1 f7       	brne	.-4      	; 0x22a <delay+0xe>
 22e:	00 c0       	rjmp	.+0      	; 0x230 <delay+0x14>
 230:	00 00       	nop
 232:	2f 5f       	subi	r18, 0xFF	; 255
 234:	3f 4f       	sbci	r19, 0xFF	; 255
 236:	f4 cf       	rjmp	.-24     	; 0x220 <delay+0x4>
 238:	08 95       	ret

0000023a <goBack>:
 23a:	81 e4       	ldi	r24, 0x41	; 65
 23c:	0e 94 3e 00 	call	0x7c	; 0x7c <queue_byte>
 240:	85 b3       	in	r24, 0x15	; 21
 242:	80 7f       	andi	r24, 0xF0	; 240
 244:	85 bb       	out	0x15, r24	; 21
 246:	85 b3       	in	r24, 0x15	; 21
 248:	85 6f       	ori	r24, 0xF5	; 245
 24a:	85 bb       	out	0x15, r24	; 21
 24c:	08 95       	ret

0000024e <goStraight>:
 24e:	82 e4       	ldi	r24, 0x42	; 66
 250:	0e 94 3e 00 	call	0x7c	; 0x7c <queue_byte>
 254:	85 b3       	in	r24, 0x15	; 21
 256:	80 7f       	andi	r24, 0xF0	; 240
 258:	85 bb       	out	0x15, r24	; 21
 25a:	85 b3       	in	r24, 0x15	; 21
 25c:	8a 6f       	ori	r24, 0xFA	; 250
 25e:	85 bb       	out	0x15, r24	; 21
 260:	08 95       	ret

00000262 <goRight>:
 262:	82 e5       	ldi	r24, 0x52	; 82
 264:	0e 94 3e 00 	call	0x7c	; 0x7c <queue_byte>
 268:	85 b3       	in	r24, 0x15	; 21
 26a:	80 7f       	andi	r24, 0xF0	; 240
 26c:	85 bb       	out	0x15, r24	; 21
 26e:	85 b3       	in	r24, 0x15	; 21
 270:	89 6f       	ori	r24, 0xF9	; 249
 272:	85 bb       	out	0x15, r24	; 21
 274:	08 95       	ret

00000276 <goLeft>:
 276:	8c e4       	ldi	r24, 0x4C	; 76
 278:	0e 94 3e 00 	call	0x7c	; 0x7c <queue_byte>
 27c:	85 b3       	in	r24, 0x15	; 21
 27e:	80 7f       	andi	r24, 0xF0	; 240
 280:	85 bb       	out	0x15, r24	; 21
 282:	85 b3       	in	r24, 0x15	; 21
 284:	86 6f       	ori	r24, 0xF6	; 246
 286:	85 bb       	out	0x15, r24	; 21
 288:	08 95       	ret

0000028a <stop>:
 28a:	83 e5       	ldi	r24, 0x53	; 83
 28c:	0e 94 3e 00 	call	0x7c	; 0x7c <queue_byte>
 290:	85 b3       	in	r24, 0x15	; 21
 292:	80 7f       	andi	r24, 0xF0	; 240
 294:	85 bb       	out	0x15, r24	; 21
 296:	08 95       	ret

00000298 <changeDirection>:
 298:	82 30       	cpi	r24, 0x02	; 2
 29a:	79 f0       	breq	.+30     	; 0x2ba <changeDirection+0x22>
 29c:	28 f4       	brcc	.+10     	; 0x2a8 <changeDirection+0x10>
 29e:	88 23       	and	r24, r24
 2a0:	41 f0       	breq	.+16     	; 0x2b2 <changeDirection+0x1a>
 2a2:	81 30       	cpi	r24, 0x01	; 1
 2a4:	41 f0       	breq	.+16     	; 0x2b6 <changeDirection+0x1e>
 2a6:	08 95       	ret
 2a8:	83 30       	cpi	r24, 0x03	; 3
 2aa:	49 f0       	breq	.+18     	; 0x2be <changeDirection+0x26>
 2ac:	84 30       	cpi	r24, 0x04	; 4
 2ae:	49 f0       	breq	.+18     	; 0x2c2 <changeDirection+0x2a>
 2b0:	08 95       	ret
 2b2:	0c 94 3b 01 	jmp	0x276	; 0x276 <goLeft>
 2b6:	0c 94 31 01 	jmp	0x262	; 0x262 <goRight>
 2ba:	0c 94 27 01 	jmp	0x24e	; 0x24e <goStraight>
 2be:	0c 94 1d 01 	jmp	0x23a	; 0x23a <goBack>
 2c2:	0c 94 45 01 	jmp	0x28a	; 0x28a <stop>

000002c6 <toggleLed>:
 2c6:	88 23       	and	r24, r24
 2c8:	11 f0       	breq	.+4      	; 0x2ce <toggleLed+0x8>
 2ca:	97 98       	cbi	0x12, 7	; 18
 2cc:	08 95       	ret
 2ce:	97 9a       	sbi	0x12, 7	; 18
 2d0:	08 95       	ret

000002d2 <InitPwm1>:
 2d2:	82 ea       	ldi	r24, 0xA2	; 162
 2d4:	8f bd       	out	0x2f, r24	; 47
 2d6:	89 e1       	ldi	r24, 0x19	; 25
 2d8:	8e bd       	out	0x2e, r24	; 46
 2da:	8f ef       	ldi	r24, 0xFF	; 255
 2dc:	90 e0       	ldi	r25, 0x00	; 0
 2de:	97 bd       	out	0x27, r25	; 39
 2e0:	86 bd       	out	0x26, r24	; 38
 2e2:	81 b3       	in	r24, 0x11	; 17
 2e4:	80 63       	ori	r24, 0x30	; 48
 2e6:	81 bb       	out	0x11, r24	; 17
 2e8:	08 95       	ret

000002ea <SetPwm1A>:
 2ea:	90 e0       	ldi	r25, 0x00	; 0
 2ec:	9b bd       	out	0x2b, r25	; 43
 2ee:	8a bd       	out	0x2a, r24	; 42
 2f0:	08 95       	ret

000002f2 <SetPwm1B>:
 2f2:	90 e0       	ldi	r25, 0x00	; 0
 2f4:	99 bd       	out	0x29, r25	; 41
 2f6:	88 bd       	out	0x28, r24	; 40
 2f8:	08 95       	ret

000002fa <main>:
 2fa:	cf 93       	push	r28
 2fc:	df 93       	push	r29
 2fe:	cd b7       	in	r28, 0x3d	; 61
 300:	de b7       	in	r29, 0x3e	; 62
 302:	2a 97       	sbiw	r28, 0x0a	; 10
 304:	0f b6       	in	r0, 0x3f	; 63
 306:	f8 94       	cli
 308:	de bf       	out	0x3e, r29	; 62
 30a:	0f be       	out	0x3f, r0	; 63
 30c:	cd bf       	out	0x3d, r28	; 61
 30e:	87 e6       	ldi	r24, 0x67	; 103
 310:	90 e0       	ldi	r25, 0x00	; 0
 312:	0e 94 06 01 	call	0x20c	; 0x20c <USARTInit>
 316:	8f ef       	ldi	r24, 0xFF	; 255
 318:	84 bb       	out	0x14, r24	; 20
 31a:	8f 9a       	sbi	0x11, 7	; 17
 31c:	0e 94 69 01 	call	0x2d2	; 0x2d2 <InitPwm1>
 320:	80 e0       	ldi	r24, 0x00	; 0
 322:	0e 94 75 01 	call	0x2ea	; 0x2ea <SetPwm1A>
 326:	80 e0       	ldi	r24, 0x00	; 0
 328:	0e 94 79 01 	call	0x2f2	; 0x2f2 <SetPwm1B>
 32c:	0e 94 27 01 	call	0x24e	; 0x24e <goStraight>
 330:	ce 01       	movw	r24, r28
 332:	01 96       	adiw	r24, 0x01	; 1
 334:	0e 94 da 00 	call	0x1b4	; 0x1b4 <readCommand>
 338:	88 23       	and	r24, r24
 33a:	d1 f3       	breq	.-12     	; 0x330 <main+0x36>
 33c:	89 81       	ldd	r24, Y+1	; 0x01
 33e:	84 34       	cpi	r24, 0x44	; 68
 340:	49 f0       	breq	.+18     	; 0x354 <main+0x5a>
 342:	83 35       	cpi	r24, 0x53	; 83
 344:	a9 f7       	brne	.-22     	; 0x330 <main+0x36>
 346:	8a 81       	ldd	r24, Y+2	; 0x02
 348:	0e 94 75 01 	call	0x2ea	; 0x2ea <SetPwm1A>
 34c:	8a 81       	ldd	r24, Y+2	; 0x02
 34e:	0e 94 79 01 	call	0x2f2	; 0x2f2 <SetPwm1B>
 352:	ee cf       	rjmp	.-36     	; 0x330 <main+0x36>
 354:	8a 81       	ldd	r24, Y+2	; 0x02
 356:	0e 94 4c 01 	call	0x298	; 0x298 <changeDirection>
 35a:	ea cf       	rjmp	.-44     	; 0x330 <main+0x36>

0000035c <_exit>:
 35c:	f8 94       	cli

0000035e <__stop_program>:
 35e:	ff cf       	rjmp	.-2      	; 0x35e <__stop_program>
